{
  "_format": "hh-sol-artifact-1",
  "contractName": "WavePortal",
  "sourceName": "contracts/WavePortal.sol",
  "abi": [
    {
      "inputs": [],
      "stateMutability": "payable",
      "type": "constructor"
    },
    {
      "anonymous": false,
      "inputs": [
        {
          "indexed": true,
          "internalType": "address",
          "name": "from",
          "type": "address"
        },
        {
          "indexed": false,
          "internalType": "uint256",
          "name": "timestamp",
          "type": "uint256"
        },
        {
          "indexed": false,
          "internalType": "string",
          "name": "message",
          "type": "string"
        }
      ],
      "name": "NewWave",
      "type": "event"
    },
    {
      "inputs": [],
      "name": "getAllWaves",
      "outputs": [
        {
          "components": [
            {
              "internalType": "address",
              "name": "waver",
              "type": "address"
            },
            {
              "internalType": "string",
              "name": "message",
              "type": "string"
            },
            {
              "internalType": "uint256",
              "name": "timestamp",
              "type": "uint256"
            }
          ],
          "internalType": "struct WavePortal.Wave[]",
          "name": "",
          "type": "tuple[]"
        }
      ],
      "stateMutability": "view",
      "type": "function"
    },
    {
      "inputs": [],
      "name": "getTotalWaves",
      "outputs": [
        {
          "internalType": "uint256",
          "name": "",
          "type": "uint256"
        }
      ],
      "stateMutability": "view",
      "type": "function"
    },
    {
      "inputs": [
        {
          "internalType": "address",
          "name": "",
          "type": "address"
        }
      ],
      "name": "lastWavedAt",
      "outputs": [
        {
          "internalType": "uint256",
          "name": "",
          "type": "uint256"
        }
      ],
      "stateMutability": "view",
      "type": "function"
    },
    {
      "inputs": [],
      "name": "totalwaves",
      "outputs": [
        {
          "internalType": "uint256",
          "name": "",
          "type": "uint256"
        }
      ],
      "stateMutability": "view",
      "type": "function"
    },
    {
      "inputs": [
        {
          "internalType": "string",
          "name": "_message",
          "type": "string"
        }
      ],
      "name": "wave",
      "outputs": [],
      "stateMutability": "nonpayable",
      "type": "function"
    }
  ],
  "bytecode": "0x60806040526200004f6040518060400160405280601981526020017f596f204920616d20206120536d61727420436f6e7472616374000000000000008152506200007760201b620006aa1760201c565b606444426200005f9190620001c4565b6200006b919062000261565b60018190555062000308565b62000117816040516024016200008e919062000184565b6040516020818303038152906040527f41304fac000000000000000000000000000000000000000000000000000000007bffffffffffffffffffffffffffffffffffffffffffffffffffffffff19166020820180517bffffffffffffffffffffffffffffffffffffffffffffffffffffffff83818316178352505050506200011a60201b60201c565b50565b60008151905060006a636f6e736f6c652e6c6f679050602083016000808483855afa5050505050565b60006200015082620001a8565b6200015c8185620001b3565b93506200016e8185602086016200022b565b6200017981620002f7565b840191505092915050565b60006020820190508181036000830152620001a0818462000143565b905092915050565b600081519050919050565b600082825260208201905092915050565b6000620001d18262000221565b9150620001de8362000221565b9250827fffffffffffffffffffffffffffffffffffffffffffffffffffffffffffffffff0382111562000216576200021562000299565b5b828201905092915050565b6000819050919050565b60005b838110156200024b5780820151818401526020810190506200022e565b838111156200025b576000848401525b50505050565b60006200026e8262000221565b91506200027b8362000221565b9250826200028e576200028d620002c8565b5b828206905092915050565b7f4e487b7100000000000000000000000000000000000000000000000000000000600052601160045260246000fd5b7f4e487b7100000000000000000000000000000000000000000000000000000000600052601260045260246000fd5b6000601f19601f8301169050919050565b61129c80620003186000396000f3fe608060405234801561001057600080fd5b50600436106100575760003560e01c8063449d46c01461005c5780639a2cdc0814610078578063a42a466314610096578063bd43a908146100c6578063f9e9a443146100e4575b600080fd5b61007660048036038101906100719190610a8c565b610102565b005b6100806104f0565b60405161008d9190610e3e565b60405180910390f35b6100b060048036038101906100ab9190610a63565b61053b565b6040516100bd9190610e3e565b60405180910390f35b6100ce610553565b6040516100db9190610cf5565b60405180910390f35b6100ec6106a4565b6040516100f99190610e3e565b60405180910390f35b42603c600360003373ffffffffffffffffffffffffffffffffffffffff1673ffffffffffffffffffffffffffffffffffffffff1681526020019081526020016000205461014f9190610f50565b1061018f576040517f08c379a000000000000000000000000000000000000000000000000000000000815260040161018690610e1e565b60405180910390fd5b42600360003373ffffffffffffffffffffffffffffffffffffffff1673ffffffffffffffffffffffffffffffffffffffff1681526020019081526020016000208190555060016000808282546101e59190610f50565b9250508190555061022c6040518060400160405280601a81526020017f25732068617320776176656420772f206d6573736167652025730000000000008152503383610743565b600260405180606001604052803373ffffffffffffffffffffffffffffffffffffffff16815260200183815260200142815250908060018154018082558091505060019003906000526020600020906003020160009091909190915060008201518160000160006101000a81548173ffffffffffffffffffffffffffffffffffffffff021916908373ffffffffffffffffffffffffffffffffffffffff16021790555060208201518160010190805190602001906102eb929190610943565b50604082015181600201555050606444426103069190610f50565b6103109190611087565b6001819055506103576040518060400160405280601581526020017f52616e646f6d20232067656e6572617465643a256400000000000000000000008152506001546107e2565b60326001541161049d576103a06040518060400160405280600681526020017f257320776f6e00000000000000000000000000000000000000000000000000008152503361087e565b6000655af3107a40009050478111156103ee576040517f08c379a00000000000000000000000000000000000000000000000000000000081526004016103e590610dde565b60405180910390fd5b60003373ffffffffffffffffffffffffffffffffffffffff168260405161041490610ce0565b60006040518083038185875af1925050503d8060008114610451576040519150601f19603f3d011682016040523d82523d6000602084013e610456565b606091505b505090508061049a576040517f08c379a000000000000000000000000000000000000000000000000000000000815260040161049190610dfe565b60405180910390fd5b50505b3373ffffffffffffffffffffffffffffffffffffffff167f5f7e16dc676677766a70e9c5628aa6c54ddb8b6e5188e2ae1e1f17f1ffbea71642836040516104e5929190610e59565b60405180910390a250565b60006105336040518060400160405280601681526020017f5765206861766520256420746f74616c207761766573000000000000000000008152506000546107e2565b600054905090565b60036020528060005260406000206000915090505481565b60606002805480602002602001604051908101604052809291908181526020016000905b8282101561069b57838290600052602060002090600302016040518060600160405290816000820160009054906101000a900473ffffffffffffffffffffffffffffffffffffffff1673ffffffffffffffffffffffffffffffffffffffff1673ffffffffffffffffffffffffffffffffffffffff16815260200160018201805461060090611024565b80601f016020809104026020016040519081016040528092919081815260200182805461062c90611024565b80156106795780601f1061064e57610100808354040283529160200191610679565b820191906000526020600020905b81548152906001019060200180831161065c57829003601f168201915b5050505050815260200160028201548152505081526020019060010190610577565b50505050905090565b60005481565b610740816040516024016106be9190610d17565b6040516020818303038152906040527f41304fac000000000000000000000000000000000000000000000000000000007bffffffffffffffffffffffffffffffffffffffffffffffffffffffff19166020820180517bffffffffffffffffffffffffffffffffffffffffffffffffffffffff838183161783525050505061091a565b50565b6107dd83838360405160240161075b93929190610d69565b6040516020818303038152906040527fe0e9ad4f000000000000000000000000000000000000000000000000000000007bffffffffffffffffffffffffffffffffffffffffffffffffffffffff19166020820180517bffffffffffffffffffffffffffffffffffffffffffffffffffffffff838183161783525050505061091a565b505050565b61087a82826040516024016107f8929190610dae565b6040516020818303038152906040527f9710a9d0000000000000000000000000000000000000000000000000000000007bffffffffffffffffffffffffffffffffffffffffffffffffffffffff19166020820180517bffffffffffffffffffffffffffffffffffffffffffffffffffffffff838183161783525050505061091a565b5050565b6109168282604051602401610894929190610d39565b6040516020818303038152906040527f319af333000000000000000000000000000000000000000000000000000000007bffffffffffffffffffffffffffffffffffffffffffffffffffffffff19166020820180517bffffffffffffffffffffffffffffffffffffffffffffffffffffffff838183161783525050505061091a565b5050565b60008151905060006a636f6e736f6c652e6c6f679050602083016000808483855afa5050505050565b82805461094f90611024565b90600052602060002090601f01602090048101928261097157600085556109b8565b82601f1061098a57805160ff19168380011785556109b8565b828001600101855582156109b8579182015b828111156109b757825182559160200191906001019061099c565b5b5090506109c591906109c9565b5090565b5b808211156109e25760008160009055506001016109ca565b5090565b60006109f96109f484610eae565b610e89565b905082815260208101848484011115610a1157600080fd5b610a1c848285610fe2565b509392505050565b600081359050610a338161124f565b92915050565b600082601f830112610a4a57600080fd5b8135610a5a8482602086016109e6565b91505092915050565b600060208284031215610a7557600080fd5b6000610a8384828501610a24565b91505092915050565b600060208284031215610a9e57600080fd5b600082013567ffffffffffffffff811115610ab857600080fd5b610ac484828501610a39565b91505092915050565b6000610ad98383610c72565b905092915050565b610aea81610fa6565b82525050565b610af981610fa6565b82525050565b6000610b0a82610eef565b610b148185610f12565b935083602082028501610b2685610edf565b8060005b85811015610b625784840389528151610b438582610acd565b9450610b4e83610f05565b925060208a01995050600181019050610b2a565b50829750879550505050505092915050565b6000610b7f82610efa565b610b898185610f2e565b9350610b99818560208601610ff1565b610ba281611174565b840191505092915050565b6000610bb882610efa565b610bc28185610f3f565b9350610bd2818560208601610ff1565b610bdb81611174565b840191505092915050565b6000610bf3603483610f3f565b9150610bfe82611185565b604082019050919050565b6000610c16602783610f3f565b9150610c21826111d4565b604082019050919050565b6000610c39600c83610f3f565b9150610c4482611223565b602082019050919050565b6000610c5c600083610f23565b9150610c678261124c565b600082019050919050565b6000606083016000830151610c8a6000860182610ae1565b5060208301518482036020860152610ca28282610b74565b9150506040830151610cb76040860182610cc2565b508091505092915050565b610ccb81610fd8565b82525050565b610cda81610fd8565b82525050565b6000610ceb82610c4f565b9150819050919050565b60006020820190508181036000830152610d0f8184610aff565b905092915050565b60006020820190508181036000830152610d318184610bad565b905092915050565b60006040820190508181036000830152610d538185610bad565b9050610d626020830184610af0565b9392505050565b60006060820190508181036000830152610d838186610bad565b9050610d926020830185610af0565b8181036040830152610da48184610bad565b9050949350505050565b60006040820190508181036000830152610dc88185610bad565b9050610dd76020830184610cd1565b9392505050565b60006020820190508181036000830152610df781610be6565b9050919050565b60006020820190508181036000830152610e1781610c09565b9050919050565b60006020820190508181036000830152610e3781610c2c565b9050919050565b6000602082019050610e536000830184610cd1565b92915050565b6000604082019050610e6e6000830185610cd1565b8181036020830152610e808184610bad565b90509392505050565b6000610e93610ea4565b9050610e9f8282611056565b919050565b6000604051905090565b600067ffffffffffffffff821115610ec957610ec8611145565b5b610ed282611174565b9050602081019050919050565b6000819050602082019050919050565b600081519050919050565b600081519050919050565b6000602082019050919050565b600082825260208201905092915050565b600081905092915050565b600082825260208201905092915050565b600082825260208201905092915050565b6000610f5b82610fd8565b9150610f6683610fd8565b9250827fffffffffffffffffffffffffffffffffffffffffffffffffffffffffffffffff03821115610f9b57610f9a6110b8565b5b828201905092915050565b6000610fb182610fb8565b9050919050565b600073ffffffffffffffffffffffffffffffffffffffff82169050919050565b6000819050919050565b82818337600083830152505050565b60005b8381101561100f578082015181840152602081019050610ff4565b8381111561101e576000848401525b50505050565b6000600282049050600182168061103c57607f821691505b602082108114156110505761104f611116565b5b50919050565b61105f82611174565b810181811067ffffffffffffffff8211171561107e5761107d611145565b5b80604052505050565b600061109282610fd8565b915061109d83610fd8565b9250826110ad576110ac6110e7565b5b828206905092915050565b7f4e487b7100000000000000000000000000000000000000000000000000000000600052601160045260246000fd5b7f4e487b7100000000000000000000000000000000000000000000000000000000600052601260045260246000fd5b7f4e487b7100000000000000000000000000000000000000000000000000000000600052602260045260246000fd5b7f4e487b7100000000000000000000000000000000000000000000000000000000600052604160045260246000fd5b6000601f19601f8301169050919050565b7f547279696e6720746f207769746864726177206d6f7265206d6f6e657920746860008201527f616e2074686520636f6e7472616374206861732e000000000000000000000000602082015250565b7f4661696c656420746f207769746864726177206d6f6e65792066726f6d20636f60008201527f6e74726163742e00000000000000000000000000000000000000000000000000602082015250565b7f57616974203135206d696e730000000000000000000000000000000000000000600082015250565b50565b61125881610fa6565b811461126357600080fd5b5056fea2646970667358221220c7dbf8baa1212f68f87b7286190ce7ab6e0ded9a7f7cf0d3357d6635526b58c764736f6c63430008040033",
  "linkReferences": {},
  "deployedLinkReferences": {}
}